{
  "contractName": "ResumeContract",
  "abi": [
    {
      "inputs": [],
      "stateMutability": "nonpayable",
      "type": "constructor"
    },
    {
      "anonymous": false,
      "inputs": [
        {
          "indexed": true,
          "internalType": "address",
          "name": "user",
          "type": "address"
        },
        {
          "indexed": false,
          "internalType": "string",
          "name": "degree",
          "type": "string"
        },
        {
          "indexed": false,
          "internalType": "string",
          "name": "institution",
          "type": "string"
        }
      ],
      "name": "NewEducationAdded",
      "type": "event"
    },
    {
      "anonymous": false,
      "inputs": [
        {
          "indexed": true,
          "internalType": "address",
          "name": "user",
          "type": "address"
        },
        {
          "indexed": false,
          "internalType": "string",
          "name": "jobTitle",
          "type": "string"
        },
        {
          "indexed": false,
          "internalType": "string",
          "name": "company",
          "type": "string"
        }
      ],
      "name": "NewExperienceAdded",
      "type": "event"
    },
    {
      "anonymous": false,
      "inputs": [
        {
          "indexed": true,
          "internalType": "address",
          "name": "user",
          "type": "address"
        },
        {
          "indexed": false,
          "internalType": "string",
          "name": "name",
          "type": "string"
        }
      ],
      "name": "NewResumeAdded",
      "type": "event"
    },
    {
      "inputs": [],
      "name": "owner",
      "outputs": [
        {
          "internalType": "address",
          "name": "",
          "type": "address"
        }
      ],
      "stateMutability": "view",
      "type": "function",
      "constant": true
    },
    {
      "inputs": [
        {
          "internalType": "address",
          "name": "",
          "type": "address"
        }
      ],
      "name": "resumes",
      "outputs": [
        {
          "internalType": "string",
          "name": "name",
          "type": "string"
        },
        {
          "internalType": "string",
          "name": "tagline",
          "type": "string"
        },
        {
          "internalType": "string",
          "name": "location",
          "type": "string"
        },
        {
          "internalType": "string",
          "name": "email",
          "type": "string"
        },
        {
          "internalType": "string",
          "name": "aboutMe",
          "type": "string"
        },
        {
          "components": [
            {
              "internalType": "string",
              "name": "github",
              "type": "string"
            },
            {
              "internalType": "string",
              "name": "linkedin",
              "type": "string"
            },
            {
              "internalType": "string",
              "name": "instagram",
              "type": "string"
            },
            {
              "internalType": "string",
              "name": "twitter",
              "type": "string"
            }
          ],
          "internalType": "struct ResumeContract.SocialLinks",
          "name": "socialLinks",
          "type": "tuple"
        }
      ],
      "stateMutability": "view",
      "type": "function",
      "constant": true
    },
    {
      "inputs": [
        {
          "internalType": "string",
          "name": "_name",
          "type": "string"
        },
        {
          "internalType": "string",
          "name": "_tagline",
          "type": "string"
        },
        {
          "internalType": "string",
          "name": "_location",
          "type": "string"
        },
        {
          "internalType": "string",
          "name": "_email",
          "type": "string"
        },
        {
          "internalType": "string[]",
          "name": "_skills",
          "type": "string[]"
        },
        {
          "internalType": "string",
          "name": "_aboutMe",
          "type": "string"
        }
      ],
      "name": "addResume",
      "outputs": [],
      "stateMutability": "nonpayable",
      "type": "function"
    },
    {
      "inputs": [
        {
          "internalType": "string",
          "name": "_jobTitle",
          "type": "string"
        },
        {
          "internalType": "string",
          "name": "_company",
          "type": "string"
        },
        {
          "internalType": "string",
          "name": "_startDate",
          "type": "string"
        },
        {
          "internalType": "string",
          "name": "_endDate",
          "type": "string"
        },
        {
          "internalType": "string",
          "name": "_description",
          "type": "string"
        }
      ],
      "name": "addExperience",
      "outputs": [],
      "stateMutability": "nonpayable",
      "type": "function"
    },
    {
      "inputs": [
        {
          "internalType": "string",
          "name": "_degree",
          "type": "string"
        },
        {
          "internalType": "string",
          "name": "_institution",
          "type": "string"
        },
        {
          "internalType": "string",
          "name": "_startDate",
          "type": "string"
        },
        {
          "internalType": "string",
          "name": "_endDate",
          "type": "string"
        },
        {
          "internalType": "string",
          "name": "_description",
          "type": "string"
        }
      ],
      "name": "addEducation",
      "outputs": [],
      "stateMutability": "nonpayable",
      "type": "function"
    },
    {
      "inputs": [
        {
          "internalType": "string",
          "name": "_github",
          "type": "string"
        },
        {
          "internalType": "string",
          "name": "_linkedin",
          "type": "string"
        },
        {
          "internalType": "string",
          "name": "_instagram",
          "type": "string"
        },
        {
          "internalType": "string",
          "name": "_twitter",
          "type": "string"
        }
      ],
      "name": "addSocialLinks",
      "outputs": [],
      "stateMutability": "nonpayable",
      "type": "function"
    },
    {
      "inputs": [
        {
          "internalType": "address",
          "name": "_address",
          "type": "address"
        }
      ],
      "name": "getResume",
      "outputs": [
        {
          "internalType": "string",
          "name": "",
          "type": "string"
        },
        {
          "internalType": "string",
          "name": "",
          "type": "string"
        },
        {
          "internalType": "string",
          "name": "",
          "type": "string"
        },
        {
          "internalType": "string",
          "name": "",
          "type": "string"
        },
        {
          "internalType": "string[]",
          "name": "",
          "type": "string[]"
        },
        {
          "internalType": "string",
          "name": "",
          "type": "string"
        }
      ],
      "stateMutability": "view",
      "type": "function",
      "constant": true
    },
    {
      "inputs": [
        {
          "internalType": "address",
          "name": "_address",
          "type": "address"
        }
      ],
      "name": "getSocialLinks",
      "outputs": [
        {
          "internalType": "string",
          "name": "github",
          "type": "string"
        },
        {
          "internalType": "string",
          "name": "linkedin",
          "type": "string"
        },
        {
          "internalType": "string",
          "name": "instagram",
          "type": "string"
        },
        {
          "internalType": "string",
          "name": "twitter",
          "type": "string"
        }
      ],
      "stateMutability": "view",
      "type": "function",
      "constant": true
    },
    {
      "inputs": [
        {
          "internalType": "address",
          "name": "_address",
          "type": "address"
        }
      ],
      "name": "getExperienceLength",
      "outputs": [
        {
          "internalType": "uint256",
          "name": "",
          "type": "uint256"
        }
      ],
      "stateMutability": "view",
      "type": "function",
      "constant": true
    },
    {
      "inputs": [
        {
          "internalType": "address",
          "name": "_address",
          "type": "address"
        },
        {
          "internalType": "uint256",
          "name": "_index",
          "type": "uint256"
        }
      ],
      "name": "getExperience",
      "outputs": [
        {
          "internalType": "string",
          "name": "jobTitle",
          "type": "string"
        },
        {
          "internalType": "string",
          "name": "company",
          "type": "string"
        },
        {
          "internalType": "string",
          "name": "startDate",
          "type": "string"
        },
        {
          "internalType": "string",
          "name": "endDate",
          "type": "string"
        },
        {
          "internalType": "string",
          "name": "description",
          "type": "string"
        }
      ],
      "stateMutability": "view",
      "type": "function",
      "constant": true
    },
    {
      "inputs": [
        {
          "internalType": "address",
          "name": "_address",
          "type": "address"
        }
      ],
      "name": "getEducationLength",
      "outputs": [
        {
          "internalType": "uint256",
          "name": "",
          "type": "uint256"
        }
      ],
      "stateMutability": "view",
      "type": "function",
      "constant": true
    },
    {
      "inputs": [
        {
          "internalType": "address",
          "name": "_address",
          "type": "address"
        },
        {
          "internalType": "uint256",
          "name": "_index",
          "type": "uint256"
        }
      ],
      "name": "getEducation",
      "outputs": [
        {
          "internalType": "string",
          "name": "degree",
          "type": "string"
        },
        {
          "internalType": "string",
          "name": "institution",
          "type": "string"
        },
        {
          "internalType": "string",
          "name": "startDate",
          "type": "string"
        },
        {
          "internalType": "string",
          "name": "endDate",
          "type": "string"
        },
        {
          "internalType": "string",
          "name": "description",
          "type": "string"
        }
      ],
      "stateMutability": "view",
      "type": "function",
      "constant": true
    }
  ],
  "bytecode": "0x608060405234801561001057600080fd5b5033600160006101000a81548173ffffffffffffffffffffffffffffffffffffffff021916908373ffffffffffffffffffffffffffffffffffffffff160217905550612c41806100616000396000f3fe608060405234801561001057600080fd5b50600436106100b45760003560e01c8063a205782a11610071578063a205782a146101ac578063c307d937146101dc578063ce522c531461020f578063d0422ce11461022b578063f82dbb5a14610247578063fb83e65e1461027c576100b4565b806301fae7ff146100b957806309a620d8146100d5578063311a5ae5146100f15780634027b297146101265780635ac3e2a01461015a5780638da5cb5b1461018e575b600080fd5b6100d360048036038101906100ce9190611e8f565b6102ac565b005b6100ef60048036038101906100ea9190611f96565b61040a565b005b61010b600480360381019061010691906120cb565b6104d3565b60405161011d96959493929190612283565b60405180910390f35b610140600480360381019061013b9190612344565b610a06565b604051610151959493929190612384565b60405180910390f35b610174600480360381019061016f9190612344565b610dcf565b604051610185959493929190612384565b60405180910390f35b610196611161565b6040516101a39190612409565b60405180910390f35b6101c660048036038101906101c191906120cb565b611187565b6040516101d39190612433565b60405180910390f35b6101f660048036038101906101f191906120cb565b6111d5565b604051610206949392919061244e565b60405180910390f35b61022960048036038101906102249190612595565b61146d565b005b61024560048036038101906102409190611e8f565b611579565b005b610261600480360381019061025c91906120cb565b6116d7565b60405161027396959493929190612742565b60405180910390f35b610296600480360381019061029191906120cb565b611c0d565b6040516102a39190612433565b60405180910390f35b60008060003373ffffffffffffffffffffffffffffffffffffffff1673ffffffffffffffffffffffffffffffffffffffff1681526020019081526020016000209050806005016040518060a00160405280888152602001878152602001868152602001858152602001848152509080600181540180825580915050600190039060005260206000209060050201600090919091909150600082015181600001908161035791906129d9565b50602082015181600101908161036d91906129d9565b50604082015181600201908161038391906129d9565b50606082015181600301908161039991906129d9565b5060808201518160040190816103af91906129d9565b5050503373ffffffffffffffffffffffffffffffffffffffff167ff4528d5a8c28a0f5e08e1c96514f05fcad2dafbddd339093c0b0c61142bfb2f787876040516103fa929190612aab565b60405180910390a2505050505050565b60008060003373ffffffffffffffffffffffffffffffffffffffff1673ffffffffffffffffffffffffffffffffffffffff168152602001908152602001600020905060405180608001604052808681526020018581526020018481526020018381525081600801600082015181600001908161048691906129d9565b50602082015181600101908161049c91906129d9565b5060408201518160020190816104b291906129d9565b5060608201518160030190816104c891906129d9565b509050505050505050565b6060806060806060806000808873ffffffffffffffffffffffffffffffffffffffff1673ffffffffffffffffffffffffffffffffffffffff1681526020019081526020016000206000016000808973ffffffffffffffffffffffffffffffffffffffff1673ffffffffffffffffffffffffffffffffffffffff1681526020019081526020016000206001016000808a73ffffffffffffffffffffffffffffffffffffffff1673ffffffffffffffffffffffffffffffffffffffff1681526020019081526020016000206002016000808b73ffffffffffffffffffffffffffffffffffffffff1673ffffffffffffffffffffffffffffffffffffffff1681526020019081526020016000206003016000808c73ffffffffffffffffffffffffffffffffffffffff1673ffffffffffffffffffffffffffffffffffffffff1681526020019081526020016000206004016000808d73ffffffffffffffffffffffffffffffffffffffff1673ffffffffffffffffffffffffffffffffffffffff16815260200190815260200160002060070185805461066e906127fc565b80601f016020809104026020016040519081016040528092919081815260200182805461069a906127fc565b80156106e75780601f106106bc576101008083540402835291602001916106e7565b820191906000526020600020905b8154815290600101906020018083116106ca57829003601f168201915b505050505095508480546106fa906127fc565b80601f0160208091040260200160405190810160405280929190818152602001828054610726906127fc565b80156107735780601f1061074857610100808354040283529160200191610773565b820191906000526020600020905b81548152906001019060200180831161075657829003601f168201915b50505050509450838054610786906127fc565b80601f01602080910402602001604051908101604052809291908181526020018280546107b2906127fc565b80156107ff5780601f106107d4576101008083540402835291602001916107ff565b820191906000526020600020905b8154815290600101906020018083116107e257829003601f168201915b50505050509350828054610812906127fc565b80601f016020809104026020016040519081016040528092919081815260200182805461083e906127fc565b801561088b5780601f106108605761010080835404028352916020019161088b565b820191906000526020600020905b81548152906001019060200180831161086e57829003601f168201915b5050505050925081805480602002602001604051908101604052809291908181526020016000905b8282101561095f5783829060005260206000200180546108d2906127fc565b80601f01602080910402602001604051908101604052809291908181526020018280546108fe906127fc565b801561094b5780601f106109205761010080835404028352916020019161094b565b820191906000526020600020905b81548152906001019060200180831161092e57829003601f168201915b5050505050815260200190600101906108b3565b505050509150808054610971906127fc565b80601f016020809104026020016040519081016040528092919081815260200182805461099d906127fc565b80156109ea5780601f106109bf576101008083540402835291602001916109ea565b820191906000526020600020905b8154815290600101906020018083116109cd57829003601f168201915b5050505050905095509550955095509550955091939550919395565b60608060608060606000808873ffffffffffffffffffffffffffffffffffffffff1673ffffffffffffffffffffffffffffffffffffffff168152602001908152602001600020600501805490508610610a94576040517f08c379a0000000000000000000000000000000000000000000000000000000008152600401610a8b90612b2e565b60405180910390fd5b60008060008973ffffffffffffffffffffffffffffffffffffffff1673ffffffffffffffffffffffffffffffffffffffff1681526020019081526020016000206005018781548110610ae957610ae8612b4e565b5b90600052602060002090600502019050806000018054610b08906127fc565b80601f0160208091040260200160405190810160405280929190818152602001828054610b34906127fc565b8015610b815780601f10610b5657610100808354040283529160200191610b81565b820191906000526020600020905b815481529060010190602001808311610b6457829003601f168201915b50505050509550806001018054610b97906127fc565b80601f0160208091040260200160405190810160405280929190818152602001828054610bc3906127fc565b8015610c105780601f10610be557610100808354040283529160200191610c10565b820191906000526020600020905b815481529060010190602001808311610bf357829003601f168201915b50505050509450806002018054610c26906127fc565b80601f0160208091040260200160405190810160405280929190818152602001828054610c52906127fc565b8015610c9f5780601f10610c7457610100808354040283529160200191610c9f565b820191906000526020600020905b815481529060010190602001808311610c8257829003601f168201915b50505050509350806003018054610cb5906127fc565b80601f0160208091040260200160405190810160405280929190818152602001828054610ce1906127fc565b8015610d2e5780601f10610d0357610100808354040283529160200191610d2e565b820191906000526020600020905b815481529060010190602001808311610d1157829003601f168201915b50505050509250806004018054610d44906127fc565b80601f0160208091040260200160405190810160405280929190818152602001828054610d70906127fc565b8015610dbd5780601f10610d9257610100808354040283529160200191610dbd565b820191906000526020600020905b815481529060010190602001808311610da057829003601f168201915b50505050509150509295509295909350565b606080606080606060008060008973ffffffffffffffffffffffffffffffffffffffff1673ffffffffffffffffffffffffffffffffffffffff168152602001908152602001600020905080600601805490508710610e62576040517f08c379a0000000000000000000000000000000000000000000000000000000008152600401610e5990612bc9565b60405180910390fd5b6000816006018881548110610e7a57610e79612b4e565b5b90600052602060002090600502019050806000018054610e99906127fc565b80601f0160208091040260200160405190810160405280929190818152602001828054610ec5906127fc565b8015610f125780601f10610ee757610100808354040283529160200191610f12565b820191906000526020600020905b815481529060010190602001808311610ef557829003601f168201915b50505050509650806001018054610f28906127fc565b80601f0160208091040260200160405190810160405280929190818152602001828054610f54906127fc565b8015610fa15780601f10610f7657610100808354040283529160200191610fa1565b820191906000526020600020905b815481529060010190602001808311610f8457829003601f168201915b50505050509550806002018054610fb7906127fc565b80601f0160208091040260200160405190810160405280929190818152602001828054610fe3906127fc565b80156110305780601f1061100557610100808354040283529160200191611030565b820191906000526020600020905b81548152906001019060200180831161101357829003601f168201915b50505050509450806003018054611046906127fc565b80601f0160208091040260200160405190810160405280929190818152602001828054611072906127fc565b80156110bf5780601f10611094576101008083540402835291602001916110bf565b820191906000526020600020905b8154815290600101906020018083116110a257829003601f168201915b505050505093508060040180546110d5906127fc565b80601f0160208091040260200160405190810160405280929190818152602001828054611101906127fc565b801561114e5780601f106111235761010080835404028352916020019161114e565b820191906000526020600020905b81548152906001019060200180831161113157829003601f168201915b5050505050925050509295509295909350565b600160009054906101000a900473ffffffffffffffffffffffffffffffffffffffff1681565b60008060008373ffffffffffffffffffffffffffffffffffffffff1673ffffffffffffffffffffffffffffffffffffffff168152602001908152602001600020600501805490509050919050565b60608060608060008060008773ffffffffffffffffffffffffffffffffffffffff1673ffffffffffffffffffffffffffffffffffffffff168152602001908152602001600020905080600801600001805461122f906127fc565b80601f016020809104026020016040519081016040528092919081815260200182805461125b906127fc565b80156112a85780601f1061127d576101008083540402835291602001916112a8565b820191906000526020600020905b81548152906001019060200180831161128b57829003601f168201915b505050505094508060080160010180546112c1906127fc565b80601f01602080910402602001604051908101604052809291908181526020018280546112ed906127fc565b801561133a5780601f1061130f5761010080835404028352916020019161133a565b820191906000526020600020905b81548152906001019060200180831161131d57829003601f168201915b50505050509350806008016002018054611353906127fc565b80601f016020809104026020016040519081016040528092919081815260200182805461137f906127fc565b80156113cc5780601f106113a1576101008083540402835291602001916113cc565b820191906000526020600020905b8154815290600101906020018083116113af57829003601f168201915b505050505092508060080160030180546113e5906127fc565b80601f0160208091040260200160405190810160405280929190818152602001828054611411906127fc565b801561145e5780601f106114335761010080835404028352916020019161145e565b820191906000526020600020905b81548152906001019060200180831161144157829003601f168201915b50505050509150509193509193565b60008060003373ffffffffffffffffffffffffffffffffffffffff1673ffffffffffffffffffffffffffffffffffffffff1681526020019081526020016000209050868160000190816114c091906129d9565b50858160010190816114d291906129d9565b50848160020190816114e491906129d9565b50838160030190816114f691906129d9565b508281600401908051906020019061150f929190611c5b565b508181600701908161152191906129d9565b503373ffffffffffffffffffffffffffffffffffffffff167f17c9c9b14e64a18d859e0a5c0ba282ba588ab2eb0cbe7189e0de57cef29214cb886040516115689190612be9565b60405180910390a250505050505050565b60008060003373ffffffffffffffffffffffffffffffffffffffff1673ffffffffffffffffffffffffffffffffffffffff1681526020019081526020016000209050806006016040518060a00160405280888152602001878152602001868152602001858152602001848152509080600181540180825580915050600190039060005260206000209060050201600090919091909150600082015181600001908161162491906129d9565b50602082015181600101908161163a91906129d9565b50604082015181600201908161165091906129d9565b50606082015181600301908161166691906129d9565b50608082015181600401908161167c91906129d9565b5050503373ffffffffffffffffffffffffffffffffffffffff167fd357b9d32bd6254f1c294d175ae2e42165572daee805d5eddf518447a65f98e687876040516116c7929190612aab565b60405180910390a2505050505050565b60006020528060005260406000206000915090508060000180546116fa906127fc565b80601f0160208091040260200160405190810160405280929190818152602001828054611726906127fc565b80156117735780601f1061174857610100808354040283529160200191611773565b820191906000526020600020905b81548152906001019060200180831161175657829003601f168201915b505050505090806001018054611788906127fc565b80601f01602080910402602001604051908101604052809291908181526020018280546117b4906127fc565b80156118015780601f106117d657610100808354040283529160200191611801565b820191906000526020600020905b8154815290600101906020018083116117e457829003601f168201915b505050505090806002018054611816906127fc565b80601f0160208091040260200160405190810160405280929190818152602001828054611842906127fc565b801561188f5780601f106118645761010080835404028352916020019161188f565b820191906000526020600020905b81548152906001019060200180831161187257829003601f168201915b5050505050908060030180546118a4906127fc565b80601f01602080910402602001604051908101604052809291908181526020018280546118d0906127fc565b801561191d5780601f106118f25761010080835404028352916020019161191d565b820191906000526020600020905b81548152906001019060200180831161190057829003601f168201915b505050505090806007018054611932906127fc565b80601f016020809104026020016040519081016040528092919081815260200182805461195e906127fc565b80156119ab5780601f10611980576101008083540402835291602001916119ab565b820191906000526020600020905b81548152906001019060200180831161198e57829003601f168201915b505050505090806008016040518060800160405290816000820180546119d0906127fc565b80601f01602080910402602001604051908101604052809291908181526020018280546119fc906127fc565b8015611a495780601f10611a1e57610100808354040283529160200191611a49565b820191906000526020600020905b815481529060010190602001808311611a2c57829003601f168201915b50505050508152602001600182018054611a62906127fc565b80601f0160208091040260200160405190810160405280929190818152602001828054611a8e906127fc565b8015611adb5780601f10611ab057610100808354040283529160200191611adb565b820191906000526020600020905b815481529060010190602001808311611abe57829003601f168201915b50505050508152602001600282018054611af4906127fc565b80601f0160208091040260200160405190810160405280929190818152602001828054611b20906127fc565b8015611b6d5780601f10611b4257610100808354040283529160200191611b6d565b820191906000526020600020905b815481529060010190602001808311611b5057829003601f168201915b50505050508152602001600382018054611b86906127fc565b80601f0160208091040260200160405190810160405280929190818152602001828054611bb2906127fc565b8015611bff5780601f10611bd457610100808354040283529160200191611bff565b820191906000526020600020905b815481529060010190602001808311611be257829003601f168201915b505050505081525050905086565b60008060008373ffffffffffffffffffffffffffffffffffffffff1673ffffffffffffffffffffffffffffffffffffffff168152602001908152602001600020600601805490509050919050565b828054828255906000526020600020908101928215611ca3579160200282015b82811115611ca2578251829081611c9291906129d9565b5091602001919060010190611c7b565b5b509050611cb09190611cb4565b5090565b5b80821115611cd45760008181611ccb9190611cd8565b50600101611cb5565b5090565b508054611ce4906127fc565b6000825580601f10611cf65750611d15565b601f016020900490600052602060002090810190611d149190611d18565b5b50565b5b80821115611d31576000816000905550600101611d19565b5090565b6000604051905090565b600080fd5b600080fd5b600080fd5b600080fd5b6000601f19601f8301169050919050565b7f4e487b7100000000000000000000000000000000000000000000000000000000600052604160045260246000fd5b611d9c82611d53565b810181811067ffffffffffffffff82111715611dbb57611dba611d64565b5b80604052505050565b6000611dce611d35565b9050611dda8282611d93565b919050565b600067ffffffffffffffff821115611dfa57611df9611d64565b5b611e0382611d53565b9050602081019050919050565b82818337600083830152505050565b6000611e32611e2d84611ddf565b611dc4565b905082815260208101848484011115611e4e57611e4d611d4e565b5b611e59848285611e10565b509392505050565b600082601f830112611e7657611e75611d49565b5b8135611e86848260208601611e1f565b91505092915050565b600080600080600060a08688031215611eab57611eaa611d3f565b5b600086013567ffffffffffffffff811115611ec957611ec8611d44565b5b611ed588828901611e61565b955050602086013567ffffffffffffffff811115611ef657611ef5611d44565b5b611f0288828901611e61565b945050604086013567ffffffffffffffff811115611f2357611f22611d44565b5b611f2f88828901611e61565b935050606086013567ffffffffffffffff811115611f5057611f4f611d44565b5b611f5c88828901611e61565b925050608086013567ffffffffffffffff811115611f7d57611f7c611d44565b5b611f8988828901611e61565b9150509295509295909350565b60008060008060808587031215611fb057611faf611d3f565b5b600085013567ffffffffffffffff811115611fce57611fcd611d44565b5b611fda87828801611e61565b945050602085013567ffffffffffffffff811115611ffb57611ffa611d44565b5b61200787828801611e61565b935050604085013567ffffffffffffffff81111561202857612027611d44565b5b61203487828801611e61565b925050606085013567ffffffffffffffff81111561205557612054611d44565b5b61206187828801611e61565b91505092959194509250565b600073ffffffffffffffffffffffffffffffffffffffff82169050919050565b60006120988261206d565b9050919050565b6120a88161208d565b81146120b357600080fd5b50565b6000813590506120c58161209f565b92915050565b6000602082840312156120e1576120e0611d3f565b5b60006120ef848285016120b6565b91505092915050565b600081519050919050565b600082825260208201905092915050565b60005b83811015612132578082015181840152602081019050612117565b60008484015250505050565b6000612149826120f8565b6121538185612103565b9350612163818560208601612114565b61216c81611d53565b840191505092915050565b600081519050919050565b600082825260208201905092915050565b6000819050602082019050919050565b600082825260208201905092915050565b60006121bf826120f8565b6121c981856121a3565b93506121d9818560208601612114565b6121e281611d53565b840191505092915050565b60006121f983836121b4565b905092915050565b6000602082019050919050565b600061221982612177565b6122238185612182565b93508360208202850161223585612193565b8060005b85811015612271578484038952815161225285826121ed565b945061225d83612201565b925060208a01995050600181019050612239565b50829750879550505050505092915050565b600060c082019050818103600083015261229d818961213e565b905081810360208301526122b1818861213e565b905081810360408301526122c5818761213e565b905081810360608301526122d9818661213e565b905081810360808301526122ed818561220e565b905081810360a0830152612301818461213e565b9050979650505050505050565b6000819050919050565b6123218161230e565b811461232c57600080fd5b50565b60008135905061233e81612318565b92915050565b6000806040838503121561235b5761235a611d3f565b5b6000612369858286016120b6565b925050602061237a8582860161232f565b9150509250929050565b600060a082019050818103600083015261239e818861213e565b905081810360208301526123b2818761213e565b905081810360408301526123c6818661213e565b905081810360608301526123da818561213e565b905081810360808301526123ee818461213e565b90509695505050505050565b6124038161208d565b82525050565b600060208201905061241e60008301846123fa565b92915050565b61242d8161230e565b82525050565b60006020820190506124486000830184612424565b92915050565b60006080820190508181036000830152612468818761213e565b9050818103602083015261247c818661213e565b90508181036040830152612490818561213e565b905081810360608301526124a4818461213e565b905095945050505050565b600067ffffffffffffffff8211156124ca576124c9611d64565b5b602082029050602081019050919050565b600080fd5b60006124f36124ee846124af565b611dc4565b90508083825260208201905060208402830185811115612516576125156124db565b5b835b8181101561255d57803567ffffffffffffffff81111561253b5761253a611d49565b5b8086016125488982611e61565b85526020850194505050602081019050612518565b5050509392505050565b600082601f83011261257c5761257b611d49565b5b813561258c8482602086016124e0565b91505092915050565b60008060008060008060c087890312156125b2576125b1611d3f565b5b600087013567ffffffffffffffff8111156125d0576125cf611d44565b5b6125dc89828a01611e61565b965050602087013567ffffffffffffffff8111156125fd576125fc611d44565b5b61260989828a01611e61565b955050604087013567ffffffffffffffff81111561262a57612629611d44565b5b61263689828a01611e61565b945050606087013567ffffffffffffffff81111561265757612656611d44565b5b61266389828a01611e61565b935050608087013567ffffffffffffffff81111561268457612683611d44565b5b61269089828a01612567565b92505060a087013567ffffffffffffffff8111156126b1576126b0611d44565b5b6126bd89828a01611e61565b9150509295509295509295565b600060808301600083015184820360008601526126e782826121b4565b9150506020830151848203602086015261270182826121b4565b9150506040830151848203604086015261271b82826121b4565b9150506060830151848203606086015261273582826121b4565b9150508091505092915050565b600060c082019050818103600083015261275c818961213e565b90508181036020830152612770818861213e565b90508181036040830152612784818761213e565b90508181036060830152612798818661213e565b905081810360808301526127ac818561213e565b905081810360a08301526127c081846126ca565b9050979650505050505050565b7f4e487b7100000000000000000000000000000000000000000000000000000000600052602260045260246000fd5b6000600282049050600182168061281457607f821691505b602082108103612827576128266127cd565b5b50919050565b60008190508160005260206000209050919050565b60006020601f8301049050919050565b600082821b905092915050565b60006008830261288f7fffffffffffffffffffffffffffffffffffffffffffffffffffffffffffffffff82612852565b6128998683612852565b95508019841693508086168417925050509392505050565b6000819050919050565b60006128d66128d16128cc8461230e565b6128b1565b61230e565b9050919050565b6000819050919050565b6128f0836128bb565b6129046128fc826128dd565b84845461285f565b825550505050565b600090565b61291961290c565b6129248184846128e7565b505050565b5b818110156129485761293d600082612911565b60018101905061292a565b5050565b601f82111561298d5761295e8161282d565b61296784612842565b81016020851015612976578190505b61298a61298285612842565b830182612929565b50505b505050565b600082821c905092915050565b60006129b060001984600802612992565b1980831691505092915050565b60006129c9838361299f565b9150826002028217905092915050565b6129e2826120f8565b67ffffffffffffffff8111156129fb576129fa611d64565b5b612a0582546127fc565b612a1082828561294c565b600060209050601f831160018114612a435760008415612a31578287015190505b612a3b85826129bd565b865550612aa3565b601f198416612a518661282d565b60005b82811015612a7957848901518255600182019150602085019450602081019050612a54565b86831015612a965784890151612a92601f89168261299f565b8355505b6001600288020188555050505b505050505050565b60006040820190508181036000830152612ac5818561213e565b90508181036020830152612ad9818461213e565b90509392505050565b7f496e76616c696420696e64657800000000000000000000000000000000000000600082015250565b6000612b18600d83612103565b9150612b2382612ae2565b602082019050919050565b60006020820190508181036000830152612b4781612b0b565b9050919050565b7f4e487b7100000000000000000000000000000000000000000000000000000000600052603260045260246000fd5b7f496e76616c696420656475636174696f6e20696e646578000000000000000000600082015250565b6000612bb3601783612103565b9150612bbe82612b7d565b602082019050919050565b60006020820190508181036000830152612be281612ba6565b9050919050565b60006020820190508181036000830152612c03818461213e565b90509291505056fea264697066735822122044d85cf66403306cfc519736c05ec7fee2f55b59873c8a891b1b74f5fd8cf70964736f6c63430008120033",
  "immutableReferences": {},
  "source": "// SPDX-License-Identifier: MIT\r\npragma solidity ^0.8.0;\r\n\r\ncontract ResumeContract {\r\n    struct Resume {\r\n        string name;\r\n        string tagline;\r\n        string location;\r\n        string email;\r\n        string[] skills;\r\n        Experiences[] experiences;\r\n        Educations[] educations;\r\n        string aboutMe;\r\n        SocialLinks socialLinks;\r\n    }\r\n\r\n    struct Experiences {\r\n        string jobTitle;\r\n        string company;\r\n        string startDate;\r\n        string endDate;\r\n        string description;\r\n    }\r\n\r\n    struct Educations {\r\n        string degree;\r\n        string institution;\r\n        string startDate;\r\n        string endDate;\r\n        string description;\r\n    }\r\n\r\n    struct SocialLinks {\r\n        string github;\r\n        string linkedin;\r\n        string instagram;\r\n        string twitter;\r\n    }\r\n\r\n    mapping(address => Resume) public resumes;\r\n\r\n    address public owner;\r\n\r\n    // Events\r\n    event NewResumeAdded(address indexed user, string name);\r\n    event NewExperienceAdded(\r\n        address indexed user,\r\n        string jobTitle,\r\n        string company\r\n    );\r\n    event NewEducationAdded(\r\n        address indexed user,\r\n        string degree,\r\n        string institution\r\n    );\r\n\r\n    // Modifiers\r\n    modifier onlyOwner() {\r\n        require(msg.sender == owner);\r\n        _;\r\n    }\r\n\r\n    constructor() {\r\n        owner = msg.sender;\r\n    }\r\n\r\n    function addResume(\r\n        string memory _name,\r\n        string memory _tagline,\r\n        string memory _location,\r\n        string memory _email,\r\n        string[] memory _skills,\r\n        string memory _aboutMe\r\n    ) public {\r\n        Resume storage newResume = resumes[msg.sender];\r\n        newResume.name = _name;\r\n        newResume.tagline = _tagline;\r\n        newResume.location = _location;\r\n        newResume.email = _email;\r\n        newResume.skills = _skills;\r\n        newResume.aboutMe = _aboutMe;\r\n        emit NewResumeAdded(msg.sender, _name);\r\n    }\r\n\r\n    function addExperience(\r\n        string memory _jobTitle,\r\n        string memory _company,\r\n        string memory _startDate,\r\n        string memory _endDate,\r\n        string memory _description\r\n    ) public {\r\n        Resume storage myResume = resumes[msg.sender];\r\n        myResume.experiences.push(\r\n            Experiences({\r\n                jobTitle: _jobTitle,\r\n                company: _company,\r\n                startDate: _startDate,\r\n                endDate: _endDate,\r\n                description: _description\r\n            })\r\n        );\r\n        emit NewExperienceAdded(msg.sender, _jobTitle, _company);\r\n    }\r\n\r\n    function addEducation(\r\n        string memory _degree,\r\n        string memory _institution,\r\n        string memory _startDate,\r\n        string memory _endDate,\r\n        string memory _description\r\n    ) public {\r\n        Resume storage myResume = resumes[msg.sender];\r\n        myResume.educations.push(\r\n            Educations({\r\n                degree: _degree,\r\n                institution: _institution,\r\n                startDate: _startDate,\r\n                endDate: _endDate,\r\n                description: _description\r\n            })\r\n        );\r\n        emit NewEducationAdded(msg.sender, _degree, _institution);\r\n    }\r\n\r\n    function addSocialLinks(\r\n        string memory _github,\r\n        string memory _linkedin,\r\n        string memory _instagram,\r\n        string memory _twitter\r\n    ) public {\r\n        Resume storage myResume = resumes[msg.sender];\r\n        myResume.socialLinks = SocialLinks({\r\n            github: _github,\r\n            linkedin: _linkedin,\r\n            instagram: _instagram,\r\n            twitter: _twitter\r\n        });\r\n    }\r\n\r\n    function getResume(\r\n        address _address\r\n    )\r\n        public\r\n        view\r\n        returns (\r\n            string memory,\r\n            string memory,\r\n            string memory,\r\n            string memory,\r\n            string[] memory,\r\n            string memory\r\n        )\r\n    {\r\n        return (\r\n            resumes[_address].name,\r\n            resumes[_address].tagline,\r\n            resumes[_address].location,\r\n            resumes[_address].email,\r\n            resumes[_address].skills,\r\n            resumes[_address].aboutMe\r\n        );\r\n    }\r\n\r\n    function getSocialLinks(\r\n        address _address\r\n    )\r\n        public\r\n        view\r\n        returns (\r\n            string memory github,\r\n            string memory linkedin,\r\n            string memory instagram,\r\n            string memory twitter\r\n        )\r\n    {\r\n        Resume storage myResume = resumes[_address];\r\n        github = myResume.socialLinks.github;\r\n        linkedin = myResume.socialLinks.linkedin;\r\n        instagram = myResume.socialLinks.instagram;\r\n        twitter = myResume.socialLinks.twitter;\r\n    }\r\n\r\n    function getExperienceLength(\r\n        address _address\r\n    ) public view returns (uint256) {\r\n        return resumes[_address].experiences.length;\r\n    }\r\n\r\n    function getExperience(\r\n        address _address,\r\n        uint256 _index\r\n    )\r\n        public\r\n        view\r\n        returns (\r\n            string memory jobTitle,\r\n            string memory company,\r\n            string memory startDate,\r\n            string memory endDate,\r\n            string memory description\r\n        )\r\n    {\r\n        require(_index < resumes[_address].experiences.length, \"Invalid index\");\r\n        Experiences storage experience = resumes[_address].experiences[_index];\r\n        jobTitle = experience.jobTitle;\r\n        company = experience.company;\r\n        startDate = experience.startDate;\r\n        endDate = experience.endDate;\r\n        description = experience.description;\r\n    }\r\n\r\n    function getEducationLength(\r\n        address _address\r\n    ) public view returns (uint256) {\r\n        return resumes[_address].educations.length;\r\n    }\r\n\r\n    function getEducation(\r\n        address _address,\r\n        uint256 _index\r\n    )\r\n        public\r\n        view\r\n        returns (\r\n            string memory degree,\r\n            string memory institution,\r\n            string memory startDate,\r\n            string memory endDate,\r\n            string memory description\r\n        )\r\n    {\r\n        Resume storage myResume = resumes[_address];\r\n        require(_index < myResume.educations.length, \"Invalid education index\");\r\n        Educations storage education = myResume.educations[_index];\r\n        degree = education.degree;\r\n        institution = education.institution;\r\n        startDate = education.startDate;\r\n        endDate = education.endDate;\r\n        description = education.description;\r\n    }\r\n}\r\n",
  "sourcePath": "C:\\Users\\TR155VY\\Documents\\Keshav\\Programming\\Blockchain\\Fiverr\\Resume Dapp\\contracts\\ResumeContract.sol",
  "compiler": {
    "name": "solc",
    "version": "0.8.18+commit.87f61d96.Emscripten.clang"
  },
  "schemaVersion": "3.4.12",
  "updatedAt": "2023-03-07T03:21:27.154Z",
  "networkType": "ethereum",
  "devdoc": {
    "kind": "dev",
    "methods": {},
    "version": 1
  },
  "userdoc": {
    "kind": "user",
    "methods": {},
    "version": 1
  }
}